S00C00004C6162362E73726563D3
S11300000C942A000C9447000C9447000C9447006D
S11300100C9447000C9447000C9447000C94470040
S11300200C9447000C9447000C9434020C94470041
S11300300C9447000C9447000C9447000C94470020
S11300400C9447000C9447000C9447000C94470010
S11300500C94470011241FBECFE5D8E0DEBFCDBF0E
S113006010E0A0E6B0E0EAEDF6E002C005900D92E3
S1130070AE36B107D9F720E0AEE6B0E001C01D927C
S1130080AE3BB207E1F70E9460020C946B030C9440
S11300900000CF93DF9300D0CDB7DEB71A82198268
S11300A044C029813A81C901880F991F880F991F7B
S11300B0880F991F821B930B88589F4FFC01118254
S11300C0108229813A81C901880F991F880F991FCD
S11300D0880F991F821B930B84589F4FFC01118238
S11300E0108229813A81C901880F991F880F991FAD
S11300F0880F991F821B930B82589F4FFC0110821B
S113010029813A81C901880F991F880F991F880F87
S1130110991F821B930B86589F4FFC0111821082FA
S113012089819A8101969A83898389819A818A3007
S113013091050CF4B6CF0F900F90DF91CF910895F5
S1130140CF93DF93CDB7DEB78CE590E02AEFFC01C7
S1130150208383E590E02BE0FC01208389E590E097
S113016029E530E0F90120812260FC0120837894A4
S1130170DF91CF910895CF93DF9300D000D0CDB716
S1130180DEB79A8389837C836B8380916E00909120
S11301906F008A30910509F457C020916E003091A8
S11301A06F004B815C81C901880F991F880F991FCB
S11301B0880F991F821B930B84589F4FFC01518316
S11301C0408320916E0030916F004B815C81C901A6
S11301D0880F991F880F991F880F991F821B930BF3
S11301E086589F4FFC015183408320916E003091CB
S11301F06F00C901880F991F880F991F880F991FD5
S1130200821B930B82589F4FFC01108220916E0039
S113021030916F00C901880F991F880F991F880FAB
S1130220991F821B930B88589F4F29813A81FC01A7
S11302303183208380916E0090916F00019690939A
S11302406F0080936E0001C000000F900F900F901C
S11302500F90DF91CF910895CF93DF9300D0CDB766
S1130260DEB71A8219828EC029813A81C901880FAA
S1130270991F880F991F880F991F821B930B86580B
S11302809F4FFC0180819181009709F476C02981F8
S11302903A81C901880F991F880F991F880F991FE8
S11302A0821B930B86589F4FFC0180819181AC0186
S11302B04150510929813A81C901880F991F880F3A
S11302C0991F880F991F821B930B86589F4FFC011F
S11302D05183408329813A81C901880F991F880F6E
S11302E0991F880F991F821B930B86589F4FFC01FF
S11302F080819181009709F040C029813A81C90128
S1130300880F991F880F991F880F991F821B930BC1
S113031082589F4FFC018081482F4F5F29813A8189
S1130320C901880F991F880F991F880F991F821B75
S1130330930B82589F4FFC01408329813A81C90164
S1130340880F991F880F991F880F991F821B930B81
S113035084589F4FFC014081518129813A81C90110
S1130360880F991F880F991F880F991F821B930B61
S113037086589F4FFC015183408389819A8101965D
S11303809A83898380916E0090916F0029813A81CC
S1130390281739070CF468CF0F900F90DF91CF9195
S11303A00895CF93DF9300D0CDB7DEB71A821982B8
S11303B04CC029813A81C901880F991F880F991F60
S11303C0880F991F821B930B82589F4FFC018081D9
S11303D08823B1F129813A81C901880F991F880FB7
S11303E0991F880F991F821B930B88589F4FFC01FC
S11303F080819181FC01099529813A81C901880F85
S1130400991F880F991F880F991F821B930B82587D
S11304109F4FFC018081482F415029813A81C901B5
S1130420880F991F880F991F880F991F821B930BA0
S113043082589F4FFC0140838FEF9FEF9A838983FB
S113044089819A8101969A83898380916E00909123
S11304506F0029813A81281739070CF4AACF0F902D
S11304600F90DF91CF9108951F920F9200905F003B
S11304700F9211242F933F934F935F936F937F9326
S11304808F939F93AF93BF93EF93FF93CF93DF9398
S1130490CDB7DEB70E942C01DF91CF91FF91EF9190
S11304A0BF91AF919F918F917F916F915F914F9188
S11304B03F912F910F9000925F000F901F9018951D
S11304C0CF93DF93CDB7DEB70E9449000E947B0231
S11304D00E94870264E070E083E992E00E94BB001E
S11304E06AE070E08AEE92E00E94BB000E94A000E5
S11304F00E94D101FDCFCF93DF93CDB7DEB78AE35E
S113050090E02FEFFC012083DF91CF910895CF93EA
S1130510DF93CDB7DEB787E390E02FEFFC012083B4
S1130520DF91CF910895CF93DF93CDB7DEB78BE3FF
S113053090E0209174003091750020593F4FF901EB
S11305402081222F30E02C593F4FF9012081FC01FA
S1130550208380917400909175008130910591F40D
S11305608BE390E02BE330E0F9012081220FFC01C2
S113057020838BE390E02BE330E0F9012081269582
S1130580FC01208388E390E0209174003091750091
S1130590205A3F4FF9012081FC012083809174008F
S11305A090917500019690937500809374008091EA
S11305B074009091750083709078992324F40197C6
S11305C08C6F9F6F01969093750080937400DF91F8
S11305D0CF910895CF93DF93CDB7DEB780917600A6
S11305E090917700019690937700809376008091A4
S11305F076009091770020E137E2B9010E9443032D
S113060090937700809376008091760090917700A4
S113061028EE33E0B9010E9443039B01C901809392
S11306207000809176009091770028EE33E0B90154
S11306300E94430324E630E0B9010E9443039B0176
S1130640C90180937100809176009091770024E62F
S113065030E0B9010E9443032AE030E0B9010E946E
S113066043039B01C90180937200809176009091AD
S113067077002AE030E0B9010E94430380937300BD
S1130680DF91CF91089597FB072E16F4009407D0BD
S113069077FD09D00E94570307FC05D03EF49095DE
S11306A081959F4F0895709561957F4F0895AA1B7A
S11306B0BB1B51E107C0AA1FBB1FA617B70710F049
S11306C0A61BB70B881F991F5A95A9F7809590957B
S10D06D0BC01CD010895F894FFCF9A
S11106DAFEFDFBF7C0F9A4B0999282F880905F
S9030000FC
