:020000020000FC
:0E05000044616D69616E2047616C6B610000A3
:100000003BC0EF93FF93AF93BF930F931F932F9337
:10001000E0E0F5E0A0E6B0E0EF93FF9300E015919B
:10002000103011F00395FBCFFF91EF91EF93FF9309
:10003000AF93BF930F9315911C93A3950A9500302E
:10004000D1F70F91BF91AF91FF91EF911C910A955C
:10005000A00F2C911C93A01B2C930A95A395013003
:1000600019F0003009F0F2CF2F911F910F91BF913D
:10007000AF91FF91EF9108950FE50DBF08E00EBF1E
:1000800000C00F931F930AE006C0000000000F930A
:100090000F910F930F912F933F934F935F9310E026
:1000A00021E030E04AE054E6521B410B311F23139C
:1000B000FBCF021B5F914F913F912F910113E5CF31
:0A00C0001F910F910E940100DCCF98
:00000001FF
